:0400000058EF00F0C5
:100008005B82FACF01F0FBCF02F0D9CF03F0DACF51
:1000180004F0F2AC12EF00F014EF00F04EEF00F035
:100028009DA819EF00F01BEF00F031EF00F09EA83B
:1000380020EF00F022EF00F031EF00F002D82FEFB0
:1000480000F00500FA6E0001FC51FD6EFD51FE6ED8
:10005800FF6AFA5012004EEF00F09DAA36EF00F04A
:1000680038EF00F04EEF00F09EAA3DEF00F03FEFB2
:1000780000F04EEF00F002D84CEF00F00500FA6EE9
:100088000001FA51FD6EFB51FE6EFF6AFA50120034
:100098004EEF00F004C0DAFF03C0D9FF02C0FBFF37
:0C00A80001C0FAFF5B921100D5EF24F0BC
:10100000001E4FF64EE64E3A3FC642124F0C45A820
:101010004FA04F984F904F884F804F784F064FCA40
:1010200047252E316620252E316620252E3166205B
:10103000252E316620252E316620252E316620256D
:101040002E316620252E31660D0A00494E46004E8F
:0F105000414E00696E66006E616E006C660000B6
:10106000000E00017B6F000E7A6F34C08CF035C02B
:101070008DF036C08EF037C08FF08FBF44EF08F090
:1010800042EF08F05AEF08F0000E7B6F010E7A6F06
:101090008CC005F08DC006F08EC007F08FC008F040
:1010A000ECEC25F005C08CF006C08DF007C08EF08A
:1010B00008C08FF0000E0001936F000E926FF1C018
:1010C0007EF0F2C07FF07A517B11D8A46AEF08F06D
:1010D0006CEF08F073EF08F0F5A571EF08F073EF0F
:1010E00008F08DEF08F07A517B11D8A47AEF08F060
:1010F0007CEF08F082EF08F0000E616F2B0E606F3E
:1011000086EF08F0000E616F2D0E606F60C018F161
:10111000924B932B7E07D8A07F078CC005F08DC023
:1011200006F08EC007F08FC008F0EBEC1DF0050450
:101130000610D8A49EEF08F0A0EF08F0F7EF08F033
:10114000BF0E396EFF0E3A6E38503B6E3C6A395016
:101150003B263A503C223C500AE11A0E3B5CD8A098
:10116000B4EF08F0B7EF08F0010EB8EF08F0000E8A
:101170000001626F636B62516311D8B4C2EF08F073
:10118000C4EF08F0D2EF08F0180E9225056E010E9C
:101190009321066E4B0E076E100E086E7AEC24F04B
:1011A000DEEF08F0180E9225056E010E9321066EF3
:1011B000530E076E100E086E7AEC24F00001FD0E3F
:1011C0007E27FF0E7F2332C017F033C018F0180EB1
:1011D000196E010E1A6E7EC01BF07FC01CF0D8EC99
:1011E0001EF017C032F018C033F082EF0EF08CC042
:1011F00005F08DC006F08EC007F08FC008F0EBEC54
:101200001DF005500610D8A408EF09F00AEF09F008
:1012100061EF09F0BF0E396EFF0E3A6E38503B6E2B
:101220003C6A39503B263A503C223C500AE11A0EA7
:101230003B5CD8A01EEF09F021EF09F0010E22EF70
:1012400009F0000E0001646F656B64516511D8B43C
:101250002CEF09F02EEF09F03CEF09F0180E922563
:10126000056E010E9321066E4F0E076E100E086E6E
:101270007AEC24F048EF09F0180E9225056E010E65
:101280009321066E570E076E100E086E7AEC24F04E
:101290000001FD0E7E27FF0E7F2332C017F033C002
:1012A00018F0180E196E010E1A6E7EC01BF07FC06A
:1012B0001CF0D8EC1EF017C032F018C033F082EFEB
:1012C0000EF0000E0001946F000E956F800E966F69
:1012D0003F0E976F000E916F000E906F8CC005F05F
:1012E0008DC006F08EC007F08FC008F0000E096EAA
:1012F000000E0A6E000E0B6E000E0C6E0EEC21F04E
:10130000D8B085EF09F087EF09F00AEF0AF0A6EFF1
:1013100009F094C005F095C006F096C007F097C09C
:1013200008F0000E096E000E0A6E200E0B6E410EC4
:101330000C6E99EC15F005C094F006C095F007C04E
:1013400096F008C097F00001904B912B8CC01EF0D6
:101350008DC01FF08EC020F08FC021F0000E096EEE
:10136000000E0A6E200E0B6E410E0C6E94C005F03E
:1013700095C006F096C007F097C008F099EC15F0FC
:1013800005C022F006C023F007C024F008C025F0F5
:1013900069EC1DF0D8B0CFEF09F0D1EF09F089EF7B
:1013A00009F0F1EF09F094C005F095C006F096C081
:1013B00007F097C008F0000E096E000E0A6E200EAE
:1013C0000B6E410E0C6EAEEC17F005C094F006C02B
:1013D00095F007C096F008C097F000019007D8A0DC
:1013E00091078CC01EF08DC01FF08EC020F08FC002
:1013F00021F094C022F095C023F096C024F097C04D
:1014000025F069EC1DF0D8A008EF0AF00AEF0AF009
:10141000D3EF09F038C00BF00C6A4AEC24F00B5003
:101420000001816F81C080F0670E8119D8A41BEF85
:101430000AF01DEF0AF043EF0AF0F351F411D8A4BB
:1014400024EF0AF026EF0AF02AEF0AF0000EF46FFC
:10145000010EF36FF4BF37EF0AF0F45106E1F30524
:10146000D8B035EF0AF037EF0AF03DEF0AF0000E82
:101470007D6F060E7C6F4CEF0AF0F3C07CF0F4C079
:101480007DF04CEF0AF0F4BF48EF0AF04AEF0AF0A3
:1014900037EF0AF03DEF0AF0670E8119D8A453EF39
:1014A0000AF055EF0AF084EF0AF091AF63EF0AF00B
:1014B000FC0E905DFF0E9159D8A061EF0AF063EF2A
:1014C0000AF082EF0AF0FF0E396EFF0E3A6E7CC012
:1014D0003BF07DC03CF039503B263A503C229051C5
:1014E0003B5C3C50800A3D6E9151800A3D58D8A02B
:1014F0007CEF0AF07EEF0AF082EF0AF0660E806F52
:1015000084EF0AF0650E806F7CC072F07DC073F0CE
:10151000670E8119D8A48FEF0AF091EF0AF0A1EFBE
:101520000AF0660E8019D8A498EF0AF09AEF0AF034
:10153000A3EF0AF091BFA1EF0AF09FEF0AF0A3EF2B
:101540000AF0724B732B660E8019D8A4AAEF0AF02A
:10155000ACEF0AF0CCEF0AF091BFB3EF0AF0B1EFB5
:101560000AF0BFEF0AF0000E946F000E956F800E28
:10157000966F3F0E976F000E916F000E906F670E83
:101580008119D8B4C6EF0AF0C8EF0AF0CCEF0AF020
:101590009051722791517323000E8B6F000E8A6F4A
:1015A0008CC082F08DC083F08EC084F08FC085F037
:1015B00094C074F095C075F096C076F097C077F03F
:1015C0005DEF0BF082C005F083C006F084C007F029
:1015D00085C008F094C009F095C00AF096C00BF0E1
:1015E00097C00CF0AEEC17F005C01EF006C01FF05F
:1015F00007C020F008C021F07BEC19F01EC086F077
:101600001FC087F020C088F021C089F086C005F097
:1016100087C006F088C007F089C008F0E6EC1CF02F
:1016200005C078F006C079F082C01EF083C01FF0BC
:1016300084C020F085C021F094C009F095C00AF064
:1016400096C00BF097C00CF086C005F087C006F07E
:1016500088C007F089C008F099EC15F005C022F0A9
:1016600006C023F007C024F008C025F028EC25F0C0
:101670001EC082F01FC083F020C084F021C085F01E
:1016800094C005F095C006F096C007F097C008F02A
:10169000000E096E000E0A6E200E0B6E410E0C6ECF
:1016A000AEEC17F005C094F006C095F007C096F0B8
:1016B00008C097F000018A4B8B2B72518A5D8B51C9
:1016C000800A396E7351800A3958D8A06AEF0BF03E
:1016D0006CEF0BF0E2EF0AF094C005F095C006F055
:1016E00096C007F097C008F0000E096E000E0A6E53
:1016F000A00E0B6E400E0C6E99EC15F005C086F036
:1017000006C087F007C088F008C089F082C01EF0CC
:1017100083C01FF084C020F085C021F086C022F075
:1017200087C023F088C024F089C025F069EC1DF043
:10173000D8B09DEF0BF09FEF0BF0AAEF0BF0000E6F
:101740000001866F000E876F000E886F000E896F94
:10175000D3EF0BF082C005F083C006F084C007F021
:1017600085C008F086C009F087C00AF088C00BF079
:1017700089C00CF00EEC21F0D8A0C1EF0BF0C3EF44
:101780000BF0D3EF0BF0000178B1C9EF0BF0CBEF0A
:101790000BF0D3EF0BF0000E866F000E876F000E7C
:1017A000886F000E896F8CC005F08DC006F08EC06A
:1017B00007F08FC008F086C009F087C00AF088C023
:1017C0000BF089C00CF0E9EC10F005C082F006C007
:1017D00083F007C084F008C085F082C01EF083C08B
:1017E0001FF084C020F085C021F0000E096E000EAD
:1017F0000A6E200E0B6E410E0C6E74C005F075C0A3
:1018000006F076C007F077C008F099EC15F005C037
:1018100022F006C023F007C024F008C025F069ECD0
:101820001DF0D8A016EF0CF018EF0CF041EF0CF003
:101830000001904B912B74C005F075C006F076C086
:1018400007F077C008F0000E096E000E0A6E200E39
:101850000B6E410E0C6E99EC15F005C074F006C0CD
:1018600075F007C076F008C077F0660E00018019A9
:10187000D8A43DEF0CF03FEF0CF041EF0CF0724BB1
:10188000732B74C094F075C095F076C096F077C055
:1018900097F0650E00018019D8B451EF0CF053EFAA
:1018A0000CF059EF0CF090C070F091C071F05DEF4A
:1018B0000CF0000E716F000E706F000E6F6F000E57
:1018C0006E6F000E6D6F000E6C6F000E8B6F000E52
:1018D0008A6F58EF0DF082C005F083C006F084C017
:1018E00007F085C008F094C009F095C00AF096C0D2
:1018F0000BF097C00CF0AEEC17F005C01EF006C060
:101900001FF007C020F008C021F07BEC19F01EC0CA
:1019100086F01FC087F020C088F021C089F086C003
:1019200005F087C006F088C007F089C008F0E6EC33
:101930001CF005C078F006C079F00001F5B9A3EFFE
:101940000CF0A5EF0CF0C2EF0CF078517911D8A48F
:10195000ACEF0CF0AEEF0CF0C2EF0CF0670E81199B
:10196000D8A4B5EF0CF0B7EF0CF0C2EF0CF071BFDC
:10197000BEEF0CF0BCEF0CF0C2EF0CF06C4B6D2B1B
:101980000CEF0DF06E516F11D8A4C9EF0CF0CBEF36
:101990000CF0F5EF0CF071BFD2EF0CF0D0EF0CF0C3
:1019A000F5EF0CF0180E9225D96E010E9321DA6E28
:1019B0002E0EDF6E924B932B7E07D8A07F07000E72
:1019C0006F6F010E6E6FF5EF0CF0180E9225D96E49
:1019D000010E9321DA6E300EDF6E924B932B7E0751
:1019E000D8A07F076C07D8A06D076C516D11D8A4E3
:1019F000FCEF0CF0FEEF0CF0E5EF0CF0180E92256A
:101A0000D96E010E9321DA6E7851300FDF6E924B52
:101A1000932B7E07D8A07F0782C01EF083C01FF0E3
:101A200084C020F085C021F094C009F095C00AF070
:101A300096C00BF097C00CF086C005F087C006F08A
:101A400088C007F089C008F099EC15F005C022F0B5
:101A500006C023F007C024F008C025F028EC25F0CC
:101A60001EC082F01FC083F020C084F021C085F02A
:101A700094C005F095C006F096C007F097C008F036
:101A8000000E096E000E0A6E200E0B6E410E0C6EDB
:101A9000AEEC17F005C094F006C095F007C096F0C4
:101AA00008C097F000017007D8A071078A4B8B2BF4
:101AB00072518A5D8B51800A396E7351800A395890
:101AC000D8B065EF0DF067EF0DF075EF0DF093BF37
:101AD00073EF0DF0935109E14B0E925DD8A073EFB7
:101AE0000DF075EF0DF06BEF0CF06E516F11D8A487
:101AF0007CEF0DF07EEF0DF08FEF0DF0F5A983EF89
:101B00000DF085EF0DF08FEF0DF0180E9225D96EC8
:101B1000010E9321DA6E2E0EDF6E924B932B180E70
:101B20009225D96E010E9321DA6E000EDF6E650EDE
:101B30008019D8A49EEF0DF0A0EF0DF070EF0EF01D
:101B4000000E8B6F4F0E8A6F180E8A25D96E010E0C
:101B50008B21DA6E000EDF6E000E7B6F000E7A6F47
:101B600091BFB7EF0DF0B5EF0DF0BFEF0DF0000E28
:101B70007B6F010E7A6F906D911FD8B0912B000E84
:101B80007D6F020E7C6FF0EF0DF08A07D8A08B07F7
:101B9000180E8A25D96E010E8B21DA6E90C005F0E1
:101BA00091C006F0000E086E0A0E076E5EEC20F083
:101BB0000550300FDF6E90C005F091C006F0000EAA
:101BC000086E0A0E076E3BEC1FF005C090F006C0D1
:101BD00091F000017C07D8A07D077E07D8A07F0781
:101BE00090519111D8A4F7EF0DF0F9EF0DF0C5EF7A
:101BF0000DF07DBF06EF0EF07D5106E17C05D8B0FB
:101C000004EF0EF006EF0EF0C5EF0DF08A07D8A036
:101C10008B077A517B11D8A410EF0EF012EF0EF063
:101C200018EF0EF0000E676F2B0E666F1CEF0EF0B4
:101C3000000E676F2D0E666F180E8A25D96E010E85
:101C40008B21DA6E66C0DFFF7E07D8A07F078A0788
:101C5000D8A08B07BF0E396EFF0E3A6E38503B6E20
:101C60003C6A39503B263A503C223C500AE11A0E5D
:101C70003B5CD8A03EEF0EF041EF0EF0010E42EFBC
:101C80000EF0000E6A6F6B6B6A516B11D8A44BEFAC
:101C90000EF04DEF0EF053EF0EF0000E696F650E73
:101CA000686F57EF0EF0000E696F450E686F180EE3
:101CB0008A25D96E010E8B21DA6E68C0DFFF7E07A0
:101CC000D8A07F07180E9225056E010E9321066E8F
:101CD000180E8A25076E010E8B21086E7AEC24F00F
:101CE00032C017F033C018F0180E196E010E1A6EBC
:101CF0007EC01BF07FC01CF0D8EC1EF017C032F085
:101D000018C033F012004CEC27F0B6EC20F0F28E45
:101D1000F28C2BEC1CF0210E00019E6F100E9F6FB9
:101D200000C2A0F001C2A1F002C2A2F003C2A3F05F
:101D300004C2A4F005C2A5F006C2A6F007C2A7F02F
:101D400008C2A8F009C2A9F00AC2AAF00BC2ABF0FF
:101D50000CC2ACF00DC2ADF00EC2AEF00FC2AFF0CF
:101D600010C2B0F011C2B1F012C2B2F013C2B3F09F
:101D700014C2B4F015C2B5F016C2B6F017C2B7F06F
:101D800018C2B8F019C2B9F01AC2BAF01BC2BBF03F
:101D90001CC2BCF01DC2BDF01EC2BEF01FC2BFF00F
:101DA000C5EC26F0210E00019E6F100E9F6F20C221
:101DB000A0F021C2A1F022C2A2F023C2A3F024C24B
:101DC000A4F025C2A5F026C2A6F027C2A7F028C21B
:101DD000A8F029C2A9F02AC2AAF02BC2ABF02CC2EB
:101DE000ACF02DC2ADF02EC2AEF02FC2AFF030C2BB
:101DF000B0F031C2B1F032C2B2F033C2B3F034C28B
:101E0000B4F035C2B5F036C2B6F037C2B7F038C25A
:101E1000B8F039C2B9F03AC2BAF03BC2BBF03CC22A
:101E2000BCF03DC2BDF03EC2BEF03FC2BFF0C5EC4B
:101E300026F0210E00019E6F100E9F6F40C2A0F091
:101E400041C2A1F042C2A2F043C2A3F044C2A4F036
:101E500045C2A5F046C2A6F047C2A7F048C2A8F006
:101E600049C2A9F04AC2AAF04BC2ABF04CC2ACF0D6
:101E70004DC2ADF04EC2AEF04FC2AFF050C2B0F0A6
:101E800051C2B1F052C2B2F053C2B3F054C2B4F076
:101E900055C2B5F056C2B6F057C2B7F058C2B8F046
:101EA00059C2B9F05AC2BAF05BC2BBF05CC2BCF016
:101EB0005DC2BDF05EC2BEF05FC2BFF0C5EC26F0F1
:101EC000210E00019E6F100E9F6F60C2A0F061C2D4
:101ED000A1F062C2A2F063C2A3F064C2A4F065C222
:101EE000A5F066C2A6F067C2A7F068C2A8F069C2F2
:101EF000A9F06AC2AAF06BC2ABF06CC2ACF06DC2C2
:101F0000ADF06EC2AEF06FC2AFF070C2B0F071C291
:101F1000B1F072C2B2F073C2B3F074C2B4F075C261
:101F2000B5F076C2B6F077C2B7F078C2B8F079C231
:101F3000B9F07AC2BAF07BC2BBF07CC2BCF07DC201
:101F4000BDF07EC2BEF07FC2BFF0C5EC26F0210E10
:101F500000019E6F100E9F6F80C2A0F081C2A1F0A1
:101F600082C2A2F083C2A3F084C2A4F085C2A5F00D
:101F700086C2A6F087C2A7F088C2A8F089C2A9F0DD
:101F80008AC2AAF08BC2ABF08CC2ACF08DC2ADF0AD
:101F90008EC2AEF08FC2AFF090C2B0F091C2B1F07D
:101FA00092C2B2F093C2B3F094C2B4F095C2B5F04D
:101FB00096C2B6F097C2B7F098C2B8F099C2B9F01D
:101FC0009AC2BAF09BC2BBF09CC2BCF09DC2BDF0ED
:101FD0009EC2BEF09FC2BFF0C5EC26F0210E0001EC
:101FE0009E6F100E9F6FA0C2A0F0A1C2A1F0A2C26E
:101FF000A2F0A3C2A3F0A4C2A4F0A5C2A5F0A6C2F9
:10200000A6F0A7C2A7F0A8C2A8F0A9C2A9F0AAC2C8
:10201000AAF0ABC2ABF0ACC2ACF0ADC2ADF0AEC298
:10202000AEF0AFC2AFF0B0C2B0F0B1C2B1F0B2C268
:10203000B2F0B3C2B3F0B4C2B4F0B5C2B5F0B6C238
:10204000B6F0B7C2B7F0B8C2B8F0B9C2B9F0BAC208
:10205000BAF0BBC2BBF0BCC2BCF0BDC2BDF0BEC2D8
:10206000BEF0BFC2BFF0C5EC26F0210E00019E6F8E
:10207000100E9F6FC0C2A0F0C1C2A1F0C2C2A2F0F8
:10208000C3C2A3F0C4C2A4F0C5C2A5F0C6C2A6F0E4
:10209000C7C2A7F0C8C2A8F0C9C2A9F0CAC2AAF0B4
:1020A000CBC2ABF0CCC2ACF0CDC2ADF0CEC2AEF084
:1020B000CFC2AFF0D0C2B0F0D1C2B1F0D2C2B2F054
:1020C000D3C2B3F0D4C2B4F0D5C2B5F0D6C2B6F024
:1020D000D7C2B7F0D8C2B8F0D9C2B9F0DAC2BAF0F4
:1020E000DBC2BBF0DCC2BCF0DDC2BDF0DEC2BEF0C4
:1020F000DFC2BFF0C5EC26F0210E00019E6F100E6E
:102100009F6FE0C2A0F0E1C2A1F0E2C2A2F0E3C280
:10211000A3F0E4C2A4F0E5C2A5F0E6C2A6F0E7C2CF
:10212000A7F0E8C2A8F0E9C2A9F0EAC2AAF0EBC29F
:10213000ABF0ECC2ACF0EDC2ADF0EEC2AEF0EFC26F
:10214000AFF0F0C2B0F0F1C2B1F0F2C2B2F0F3C23F
:10215000B3F0F4C2B4F0F5C2B5F0F6C2B6F0F7C20F
:10216000B7F0F8C2B8F0F9C2B9F0FAC2BAF0FBC2DF
:10217000BBF0FCC2BCF0FDC2BDF0FEC2BEF0FFC2AF
:10218000BFF0C5EC26F0480E00019E6F100E9F6F49
:10219000C5EC26F0480E00019E6F100E9F6FC5EC37
:1021A00026F0480E00019E6F100E9F6FC5EC26F0C2
:1021B000150E01016F6F4B0E6E6FBE0EE82EFED72F
:1021C0006E2FFCD76F2FFAD700F089EF0EF058EF83
:1021D00000F00850800B116E08500824136E07AEF3
:1021E000F4EF10F0F6EF10F0F7EF10F0138013504B
:1021F000D8B4FDEF10F0FFEF10F014EF11F013283A
:10220000D8A405EF11F007EF11F00FEF11F0000E59
:10221000056E000E066E000E076E000E086E078E2D
:10222000000E086E1CEF11F0000E056E000E066E1B
:10223000000E076E000E086E0C50800B126E1150CF
:102240001218D8B426EF11F028EF11F029EF11F091
:10225000118C0C500C24126E0BAE31EF11F033EFD9
:1022600011F034EF11F012801250D8B43AEF11F09F
:102270003CEF11F051EF11F01228D8A442EF11F009
:1022800044EF11F04CEF11F0000E096E000E0A6ED3
:10229000000E0B6E000E0C6E0B8E000E0C6E59EFC6
:1022A00011F0000E096E000E0A6E000E0B6E000E8D
:1022B0000C6E1350125CD8B060EF11F062EF11F0A9
:1022C00089EF11F011AC67EF11F069EF11F06BEFCE
:1022D00011F0800E111A13C014F012C013F014C0C4
:1022E00012F005C014F009C005F014C009F006C0D2
:1022F00014F00AC006F014C00AF007C014F00BC0B6
:1023000007F014C00BF008C014F00CC008F014C0A3
:102310000CF0000E146E135012C00DF00E6A0D5E1C
:10232000000E0E5A0EBE9EEF11F00E5009E11A0E6D
:102330000D5CD8A09EEF11F0A0EF11F0D7EF11F0D7
:102340000550061007100810D8A4A9EF11F0ACEF43
:1023500011F0010EADEF11F0000E146E000E056EBF
:10236000000E066E000E076E000E086E12C013F00F
:10237000E0EF11F014A0BFEF11F0C1EF11F0C7EFC3
:1023800011F0D89014300109146EC9EF11F0D890F3
:10239000143205A0CEEF11F0D0EF11F0D1EF11F013
:1023A000148E08340832073206320532132A1250CE
:1023B000135CD8A0DEEF11F0E0EF11F0BAEF11F0EE
:1023C00011BCE5EF11F0E7EF11F027EF12F0135019
:1023D000D8A4EDEF11F0EFEF11F0F9EF11F0000ECE
:1023E000056E000E066E000E076E000E086E48EFBA
:1023F00013F0095005260A5006220B5007220C50F4
:10240000082208A006EF12F008EF12F0B4EF12F065
:1024100014A00DEF12F00FEF12F015EF12F0D8909C
:1024200014300109146E17EF12F0D890143205A081
:102430001CEF12F01EEF12F01FEF12F0148E083492
:102440000832073206320532132AB4EF12F009506F
:10245000055C0A5006580B5007580850800A0D6E4C
:102460000C50800A0D58D8B038EF12F03AEF12F045
:1024700065EF12F00550095C0D6E06500A580E6E9D
:1024800007500B580F6E08500C58106EFF0E0D249D
:10249000056EFF0E0E20066EFF0E0F20076EFF0E5C
:1024A0001020086E800E111A146C1450D8A45BEF23
:1024B00012F05DEF12F06DEF12F0010E0526000E26
:1024C0000622072208226DEF12F00950055E0A501D
:1024D000065A0B50075A0C50085A055006100710A0
:1024E0000810D8A476EF12F078EF12F0ADEF12F0EA
:1024F0001450D8A47EEF12F080EF12F0ADEF12F07E
:10250000000E056E000E066E000E076E000E086EC1
:1025100048EF13F0D890053606360736083614AE65
:1025200094EF12F096EF12F097EF12F0058014A0DE
:102530009CEF12F09EEF12F0A2EF12F0D88014364A
:10254000A4EF12F0D89014361350D8B4AAEF12F0BA
:10255000ACEF12F0ADEF12F0130607AEB2EF12F0CF
:10256000B4EF12F08AEF12F0000E126E14AEBBEF51
:1025700012F0BDEF12F0D5EF12F014C00DF07F0E87
:102580000D16D8B4C6EF12F0C8EF12F0CCEF12F06F
:10259000010E126ED5EF12F005A0D1EF12F0D3EFBD
:1025A00012F0D5EF12F0C8EF12F01250D8B4DBEFF2
:1025B00012F0DDEF12F008EF13F0010E0526000E09
:1025C00006220722082208A0E8EF12F0EAEF12F034
:1025D00008EF13F005C00DF006C00EF007C00FF0B5
:1025E00008C010F0103410320F320E320D320DC010
:1025F00005F00EC006F00FC007F010C008F0132859
:10260000D8B405EF13F007EF13F008EF13F0132A17
:102610001328D8B40EEF13F010EF13F018EF13F0E7
:102620001350D8A416EF13F018EF13F02AEF13F09D
:10263000000E056E000E066E000E076E000E086E90
:102640001350D8A426EF13F028EF13F02AEF13F05D
:10265000000E116E13A02FEF13F031EF13F034EFD3
:1026600013F0078E35EF13F0079ED8901330086EE5
:1026700011AE3DEF13F03FEF13F040EF13F0088E73
:1026800005C005F006C006F007C007F008C008F056
:10269000120040C0D9FF41C0DAFFDECFF6FFDDCF28
:1026A000F7FFF86A0800F550250AD8A45AEF13F08E
:1026B0005CEF13F07CEF15F040C0D9FF41C0DAFFAA
:1026C000DE2A000EDD22000E0001F26F000EF16F17
:1026D000F1C0F5F0F2C0F6F0F369F46940C0D9FF3B
:1026E00041C0DAFFDECFF6FFDDCFF7FFF86A080062
:1026F000F5502E0AD8A47FEF13F081EF13F000EF0E
:1027000014F0000EF46F000EF36F40C0D9FF41C00B
:10271000DAFFDE2A000EDD2240C0D9FF41C0DAFF19
:10272000DECFF6FFDDCFF7FFF86A0800F5502A0A82
:10273000D8A49DEF13F09FEF13F0BCEF13F040C04F
:10274000D9FF41C0DAFFDE2A000EDD2242C0D9FFE8
:1027500043C0DAFFDFCF44F0020EDE26DFCF45F0C4
:10276000000EDD2244C0D9FF45C0DAFFDECFF3F012
:10277000DDCFF4F000EF14F040C0D9FF41C0DAFF24
:10278000DECF0CF0DDCF0DF05EEC1BF00CC0F3F0F3
:102790000DC0F4F0D3EF13F040C0D9FF41C0DAFF11
:1027A000DE2A000EDD22D00E446EFF0E456E40C0C4
:1027B000D9FF41C0DAFFDECFF6FFDDCFF7FFF86AC1
:1027C0000800F550466E476A445046264550472259
:1027D00047500AE10A0E465CD8A0F1EF13F0F4EF7F
:1027E00013F0010EF5EF13F0000E486E496A4850E1
:1027F0004910D8A4FEEF13F000EF14F0CCEF13F063
:1028000040C0D9FF41C0DAFFDECFF6FFDDCFF7FFD2
:10281000F86A0800F5500B6E0C6A4AEC24F00B5075
:10282000506E5050D8B417EF14F019EF14F053EF66
:1028300014F040C0D9FF41C0DAFFDECF44F0DDCF55
:1028400045F0010E4426000E452244C0F6FF45C067
:10285000F7FFF86A0800F5500B6E0C6A4AEC24F09A
:102860000B50516E5150D8B438EF14F03AEF14F0C9
:1028700053EF14F040C0D9FF41C0DAFFDECF44F07F
:10288000DDCF45F0020E4426000E452244C0F6FF7F
:1028900045C0F7FFF86A0800F5500B6E0C6A4AEC69
:1028A00024F00B50526E660E5018D8A45AEF14F054
:1028B0005CEF14F09DEF14F040C0D9FF41C0DAFF87
:1028C000DECFF6FFDDCFF7FFF86A0800F5CF53F053
:1028D00040C0D9FF41C0DAFFDE2A000EDD2242C02F
:1028E000D9FF43C0DAFFDFCF44F0040EDE26DFCF8E
:1028F00045F0000EDD2244C0D9FF45C0DAFFDECF2F
:102900004CF0DECF4DF0DECF4EF0DECF4FF03EC0CC
:1029100032F03FC033F04CC034F04DC035F04EC003
:1029200036F04FC037F053C038F030EC08F032C00A
:102930003EF033C03FF098EF15F0500E056E000EDC
:10294000066E5B0E076E100E086E000E0A6E020E0B
:10295000096E6AEC1EF005500610D8A4B2EF14F010
:10296000B4EF14F045EF15F040C0D9FF41C0DAFFD5
:10297000DECF44F0DDCF45F0010E4426000E4522A7
:1029800044C0F6FF45C0F7FFF86A0800F5CF53F0E2
:10299000BF0E446EFF0E456E40C0D9FF41C0DAFF46
:1029A000DECFF6FFDDCFF7FFF86A0800F550466E80
:1029B000476A445046264550472247500AE11A0EBE
:1029C000465CD8A0E6EF14F0E9EF14F0010EEAEF50
:1029D00014F0000E4A6E4B6A4A504B10D8B4F3EF15
:1029E00014F0F5EF14F00FEF15F042C0D9FF43C01B
:1029F000DAFFDFCF44F0040EDE26DFCF45F0000E15
:102A0000DD2244C0D9FF45C0DAFFDECF4CF0DECF77
:102A10004DF0DECF4EF0DECF4FF027EF15F042C085
:102A2000D9FF43C0DAFFDFCF44F0040EDE26DFCF4C
:102A300045F0000EDD2244C0D9FF45C0DAFFDECFED
:102A40004CF0DECF4DF0DECF4EF0DECF4FF0020E79
:102A500040C0D9FF41C0DAFFDE26000EDD223EC0B5
:102A600032F03FC033F04CC034F04DC035F04EC0B2
:102A700036F04FC037F053C038F030EC08F032C0B9
:102A80003EF033C03FF098EF15F040C0D9FF41C091
:102A9000DAFFDECFF6FFDDCFF7FFF86A0800F5506A
:102AA000250AD8A456EF15F058EF15F06FEF15F082
:102AB00040C0D9FF41C0DAFFDE2A000EDD22000E41
:102AC000086E250E076E3EC009F03FC00AF0B6EC56
:102AD00021F0000E3F6E010E3E6E98EF15F040C0E3
:102AE000D9FF41C0DAFFDE2A000EDD22000E3F6E64
:102AF000000E3E6E98EF15F040C0D9FF41C0DAFFDE
:102B0000DECFF6FFDDCFF7FFF86A0800F550076E5D
:102B1000086A3EC009F03FC00AF0B6EC21F040C0A0
:102B2000D9FF41C0DAFFDE2A000EDD2269EF15F081
:102B300012000850800B116E08500824176E07AE63
:102B4000A4EF15F0A6EF15F0A7EF15F017801750BA
:102B5000D8B4ADEF15F0AFEF15F0C2EF15F01728B0
:102B6000D8A4B5EF15F0B7EF15F0BFEF15F0000ED4
:102B7000056E000E066E000E076E000E086E078EC4
:102B8000CAEF15F0000E056E000E066E000E076E01
:102B9000000E086E0C50800B111A0C500C24126E93
:102BA0000BAED5EF15F0D7EF15F0D8EF15F012807A
:102BB0001250D8B4DEEF15F0E0EF15F0F3EF15F09A
:102BC0001228D8A4E6EF15F0E8EF15F0F0EF15F0B5
:102BD000000E096E000E0A6E000E0B6E000E0C6EDB
:102BE0000B8EFBEF15F0000E096E000E0A6E000E44
:102BF0000B6E000E0C6E1250D8B401EF16F003EFFE
:102C000016F00BEF16F01750D8A409EF16F00BEFE3
:102C100016F015EF16F0000E056E000E066E000E93
:102C2000076E000E086EADEF17F00B500502F3CFE4
:102C30001CF0F4CF1DF01C50136E146A156A166A4E
:102C40001D50186E196A1A6A1B6A0A500602F3CFE1
:102C50001CF0F4CF1DF01C501326000E1422152278
:102C600016221D501826000E19221A221B22095066
:102C70000702F3CF1CF0F4CF1DF01C501326000EFA
:102C80001422152216221D501826000E19221A226F
:102C90001B2215C016F014C015F013C014F0136AEF
:102CA00009500602F3CF1CF0F4CF1DF01C50132680
:102CB0001D501422000E1522000E16220A50050285
:102CC000F3CF1CF0F4CF1DF01C5013261D5014221E
:102CD000000E1522000E162215C016F014C015F0B5
:102CE00013C014F0136A09500502F3CF1CF0F4CF9F
:102CF0001DF01C5013261D501422000E1522000E2C
:102D000016220B500602F3CF1CF0F4CF1DF01C501E
:102D100018261D501922000E1A22000E1B220A50DE
:102D20000702F3CF1CF0F4CF1DF01C5018261D50E5
:102D30001922000E1A22000E1B220B500702F3CF9D
:102D40001CF0F4CF1DF01C500D6E1D500E6E0F6A5E
:102D5000106A0FC010F00EC00FF00DC00EF00D6A1B
:102D60000D5018260E5019220F501A2210501B22F7
:102D700013C00DF014C00EF015C00FF016C010F007
:102D8000190EC8EF16F0D89010320F320E320D32F5
:102D9000E82EC3EF16F00D5018260E5019220F50D2
:102DA0001A2210501B2215C016F014C015F013C0C3
:102DB00014F0136A125017C00DF00E6A0D26000EA3
:102DC0000E22820E0D241C6EFF0E0E201D6EFEEFD5
:102DD00016F0D890183619361A361B3616AEF3EFA1
:102DE00016F0F5EF16F0F6EF16F01880D8901336BF
:102DF0001436153616361C06D8A01D061AAE03EF7B
:102E000017F005EF17F0E9EF16F0000E126E16AE90
:102E10000CEF17F00EEF17F032EF17F0FF0E131450
:102E20000D6EFF0E14140E6EFF0E15140F6E7F0E36
:102E30001614106E0D500E100F101010D8B423EF92
:102E400017F025EF17F029EF17F0010E126E32EF91
:102E500017F018A02EEF17F030EF17F032EF17F041
:102E600025EF17F01250D8B438EF17F03AEF17F0FB
:102E70005EEF17F0010E1826000E19221A221B22EF
:102E80001BA045EF17F047EF17F05EEF17F018C0E3
:102E90000DF019C00EF01AC00FF01BC010F0103466
:102EA00010320F320E320D320DC018F00EC019F074
:102EB0000FC01AF010C01BF01C4A1D2A1DBE69EF7E
:102EC00017F01D5008E11C28D8A069EF17F06BEF30
:102ED00017F075EF17F0000E186E000E196E800EC9
:102EE0001A6E7F0E1B6EA3EF17F01DBE82EF17F058
:102EF0001D5006E11C04D8B080EF17F082EF17F0E8
:102F00008EEF17F0000E186E000E196E000E1A6E7E
:102F1000000E1B6E000E116EA3EF17F01CC017F011
:102F2000FF0E1816FF0E19167F0E1A16000E1B162E
:102F300017A09DEF17F09FEF17F0A0EF17F01A8E74
:102F4000D89017301B6E11501B1218C005F019C015
:102F500006F01AC007F01BC008F012000850800BE2
:102F6000156E085008241C6E07AEB9EF17F0BBEFC2
:102F700017F0BCEF17F01C801C50D8B4C2EF17F04C
:102F8000C4EF17F0D9EF17F01C28D8A4CAEF17F038
:102F9000CCEF17F0D4EF17F0000E056E000E066EA2
:102FA000000E076E000E086E078E000E086EE1EF31
:102FB00017F0000E056E000E066E000E076E000E76
:102FC000086E0C50800B151A0C500C241D6E0BAEA5
:102FD000ECEF17F0EEEF17F0EFEF17F01D801D503C
:102FE000D8B4F5EF17F0F7EF17F00CEF18F01D2835
:102FF000D8A4FDEF17F0FFEF17F007EF18F0000E61
:10300000096E000E0A6E000E0B6E000E0C6E0B8E1B
:10301000000E0C6E14EF18F0000E096E000E0A6E12
:10302000000E0B6E000E0C6E09500A100B100C10E7
:10303000D8A41DEF18F01FEF18F037EF18F0000EAE
:10304000056E000E066E000E076E000E086E800EF6
:1030500007127F0E08121550081205C005F006C0B1
:1030600006F007C007F008C008F07AEF19F01C500E
:10307000D8A43DEF18F03FEF18F049EF18F0000E1C
:10308000056E000E066E000E076E000E086E7AEFDB
:1030900019F01D501CC00DF00E6A0D5E000E0E5A88
:1030A0007F0E0D24166E000E0E20176E05C011F057
:1030B00006C012F007C013F008C014F0000E056E31
:1030C000000E066E000E076E000E086E000E186EE3
:1030D000000E196E000E1A6E000E1B6E000E1D6E95
:1030E000AAEF18F01D50D8B478EF18F07AEF18F066
:1030F00091EF18F0D8901136123613361436D89056
:1031000005360636073608361BAE89EF18F08BEF0A
:1031100018F08CEF18F00580D890183619361A364A
:103120001B360950115C0A5012580B5013580C50A2
:103130001458D8A09EEF18F0A0EF18F0A9EF18F0DF
:103140001B8C0950115E0A50125A0B50135A0C5026
:10315000145A1D2A190E1D64B0EF18F0B2EF18F0C2
:1031600072EF18F01150121013101410D8B4BBEFF6
:1031700018F0BDEF18F0D5EF18F01880D5EF18F063
:10318000D89005360636073608361BAECAEF18F05B
:10319000CCEF18F0CDEF18F00580D890183619361E
:1031A0001A361B361606D8A0170607AEDAEF18F047
:1031B000DCEF18F0C0EF18F0000E1D6E1BAEE3EF51
:1031C00018F0E5EF18F009EF19F0FF0E18140D6E66
:1031D000FF0E19140E6EFF0E1A140F6E7F0E1B14C5
:1031E000106E0D500E100F101010D8B4FAEF18F02A
:1031F000FCEF18F000EF19F0010E1D6E09EF19F049
:1032000005A005EF19F007EF19F009EF19F0FCEF31
:1032100018F01D50D8B40FEF19F011EF19F035EF79
:1032200019F0010E0526000E06220722082208A02A
:103230001CEF19F01EEF19F035EF19F005C00DF075
:1032400006C00EF007C00FF008C010F010341032A6
:103250000F320E320D320DC005F00EC006F00FC059
:1032600007F010C008F0164A172A17BE40EF19F0F1
:10327000175008E11628D8A040EF19F042EF19F0D6
:103280004DEF19F0000E176E1668000E056E000E59
:10329000066E000E076E000E086E17BE5AEF19F08C
:1032A000175006E11604D8B058EF19F05AEF19F08C
:1032B00068EF19F0000E176E000E166E000E056E08
:1032C000000E066E000E076E000E086E000E156EE4
:1032D00016C01CF01CA06FEF19F071EF19F074EF1D
:1032E00019F0078E75EF19F0079ED8901C30086E04
:1032F0002BEF18F01200E4C02EF0E5C02FF0E6C06E
:1033000030F0E7C031F01EC02EF01FC02FF020C0FB
:1033100030F021C031F0810E226EFF0E236E2EC0E0
:1033200024F02FC025F030C026F031C027F0180E51
:103330009FEF19F0D8902732263225322432E82E1A
:103340009AEF19F0245022242C6E000E23202D6EAB
:103350002DBEB4EF19F02D5009E1170E2C5CD8A04A
:10336000B4EF19F0B6EF19F0C0EF19F01EC01EF05F
:103370001FC01FF020C020F021C021F083EF1AF001
:103380002DBEC5EF19F0C7EF19F037EF1AF02CC0BA
:1033900022F0FF0E236EFF0E246E7F0E256E000EB0
:1033A000266E2266D6EF19F0DEEF19F026342632AB
:1033B000253224322332222ED1EF19F023C028F0F7
:1033C00024C029F025C02AF026C02BF028502E1446
:1033D000226E29502F14236E2A503014246E2B5045
:1033E0003114256E2250231024102510D8A4FBEF91
:1033F00019F0FDEF19F0FFEF19F0B6EF19F02EC03C
:1034000022F02FC023F030C024F031C025F0200E70
:103410000FEF1AF0D8902532243223322232E82ED0
:103420000AEF1AF02250231024102510D8B41BEFF5
:103430001AF01DEF1AF025EF1AF028502E26295009
:103440002F222A5030222B503122281C226E291C78
:10345000236E2A1C246E2B1C256E22502E16235000
:103460002F1624503016255031167BEF1AF02EC03F
:1034700022F02FC023F030C024F031C025F0200E00
:1034800047EF1AF0D8902532243223322232E82E28
:1034900042EF1AF02250231024102510D8A453EF25
:1034A0001AF055EF1AF05FEF1AF0000E2E6E000EB4
:1034B0002F6E000E306E000E316E7BEF1AF0D8903A
:1034C0002E34226E2F34236E3034246E3134256E28
:1034D0002250231024102510D8B471EF1AF073EF86
:1034E0001AF07BEF1AF0000E2E6E000E2F6E800E7B
:1034F000306EBF0E316E2EC01EF02FC01FF030C0D8
:1035000020F031C021F012000D6E0D50D8B48BEFB9
:103510001AF08DEF1AF0AFEF1AF008BE94EF1AF020
:1035200092EF1AF0AFEF1AF005C009F006C00AF0EA
:1035300007C00BF008C00CF0091E0A1E0B1E0C1E63
:10354000092A000E0A220B220C2209C00FF00AC021
:1035500010F00BC011F00CC012F0B7EF1AF005C05C
:103560000FF006C010F007C011F008C012F00550AF
:10357000061007100810D8A4C0EF1AF0C2EF1AF016
:10358000CCEF1AF0000E056E000E066E000E076EF0
:10359000000E086E5DEF1BF0960E0E6ED6EF1AF061
:1035A0000E2AD8901232113210320F32000E0F1440
:1035B000096E000E10140A6E000E11140B6EFE0E32
:1035C00012140C6E09500A100B100C10D8A4EBEF5B
:1035D0001AF0EDEF1AF0D0EF1AF0FBEF1AF00E2A06
:1035E000010E0F26000E102211221222D890123244
:1035F000113210320F32000E0F14096E000E10142B
:103600000A6E000E11140B6EFF0E12140C6E095090
:103610000A100B100C10D8A410EF1BF012EF1BF0C7
:10362000EFEF1AF01AEF1BF00E06D8900F36103697
:103630001136123611BE1FEF1BF021EF1BF029EFE0
:103640001BF0020E0E6027EF1BF029EF1BF014EFAA
:103650001BF00EB02EEF1BF030EF1BF031EF1BF024
:10366000119ED8900E320EC009F00A6A0B6A0C6ADD
:1036700009C00CF00B6A0A6A096A09500F120A5055
:1036800010120B5011120C5012120D50D8B44BEFF7
:103690001BF04DEF1BF055EF1BF008BE54EF1BF075
:1036A00052EF1BF055EF1BF0128E0FC005F010C04B
:1036B00006F011C007F012C008F01200000E1A6EDA
:1036C000000E196E000E136E000E126E6AEF1BF0E4
:1036D0000C4A0D2A010E186E0CC0F6FF0DC0F7FF44
:1036E000F86A0800F550200AD8B479EF1BF07BEF98
:1036F0001BF099EF1BF0F70E0E6EFF0E0F6E0CC055
:10370000F6FF0DC0F7FFF86A0800F550106E116A59
:103710000E5010260F501122115009E1050E105CB9
:10372000D8A095EF1BF097EF1BF099EF1BF0000E60
:10373000186E18C014F0156A14501510D8A4A3EF11
:103740001BF0A5EF1BF068EF1BF0AFEF1BF0000EB6
:10375000136E010E126E0C4A0D2AE6EF1BF00CC020
:10376000F6FF0DC0F7FFF86A0800F5500E6E0F6AFD
:103770000F50000AD8B4BFEF1BF0E6EF1BF00E505D
:103780002B0AD8B4ABEF1BF0060AD8B4A7EF1BF096
:10379000E6EF1BF019C005F01AC006F0000E086E27
:1037A0000A0E076EEFEC26F00CC0F6FF0DC0F7FF17
:1037B000F86A0800F550055E000E065A300E052422
:1037C000196E000E06201A6EABEF1BF0D00E0E6EB7
:1037D000FF0E0F6E0CC0F6FF0DC0F7FFF86A080071
:1037E000F550106E116A0E5010260F501122115014
:1037F0000AE10A0E105CD8A000EF1CF003EF1CF0E9
:10380000010E04EF1CF0000E166E176A165017100A
:10381000D8A40DEF1CF00FEF1CF0CAEF1BF01250F4
:103820001310D8A416EF1CF018EF1CF026EF1CF0B4
:1038300019C00EF01AC00FF00E1E0F1E0E4A0F2AEE
:103840000EC00CF00FC00DF02AEF1CF019C00CF0E8
:103850001AC00DF01200000E336E000E326E000E14
:10386000316E000E306E000E356E000E346E32502A
:10387000810F166E690E3CEC23F00001EC6F3250A4
:10388000800F166E690E3CEC23F00001ED6F020E06
:103890003224326E000E3320336E48EC22F0000EDC
:1038A0002A6E030E2B6ED8903434D96E3534DA6E0E
:1038B000D890D936DA362A50D9262B50DA221EC0B3
:1038C000DEFF1FC0DEFF20C0DEFF21C0DEFF060ED0
:1038D0002A6E300EE82EFED72A2EFCD700F000F01C
:1038E000344A352A35BE7EEF1CF0355009E1400ED2
:1038F000345CD8A07EEF1CF080EF1CF037EF1CF09A
:10390000000E376E000E366E000E396E000E386EE9
:10391000000E2A6E030E2B6ED8903034D96E3134DF
:10392000DA6ED890D936DA362A50D9262B50DA22D8
:1039300036C02CF037C02DF0050ED8902C362D3621
:10394000E82E9DEF1CF0000E2E6E020E2F6E2C50F6
:103950002E262D502F22D8903834E16E3934E26E65
:10396000D890E136E2362E50E1262F50E222DECF0B
:10397000E6FFDECFE6FFDECFE6FFDECFE6FF010E9D
:103980003024306E000E3120316E384A392A39BE6B
:10399000D3EF1CF0395009E1080E385CD8A0D3EF02
:1039A0001CF0D5EF1CF088EF1CF0364A372A37BEE2
:1039B000E3EF1CF0375009E1080E365CD8A0E3EFC6
:1039C0001CF0E5EF1CF084EF1CF012000734083403
:1039D0000E6E0E50D8A4EFEF1CF0F1EF1CF0FBEFD1
:1039E0001CF0000E056E000E066E000E076E000E37
:1039F000086E68EF1DF005C009F006C00AF007C0A8
:103A00000BF008C00CF0200E0BEF1DF0D8900C321C
:103A10000B320A320932E82E06EF1DF009500D6E06
:103A2000078EFF0E0516FF0E0616FF0E0716000E78
:103A30000816960E0E5E0EBE22EF1DF020EF1DF052
:103A400038EF1DF00E50800A970FD8B02AEF1DF006
:103A50002CEF1DF02EEF1DF0F1EF1CF0D890083286
:103A60000732063205320E3E2EEF1DF050EF1DF0EC
:103A70001F0E0E643EEF1DF040EF1DF048EF1DF0ED
:103A8000F1EF1CF0D89005360636073608360E06DC
:103A90000E50D8A44EEF1DF050EF1DF042EF1DF078
:103AA0000D50D8B456EF1DF058EF1DF060EF1DF02B
:103AB000081E071E061E056C000E0622072208229D
:103AC00005C005F006C006F007C007F008C008F002
:103AD0001200000E1E14266E000E1F14276E800E9C
:103AE0002014286E7F0E2114296E265027102810CE
:103AF0002910D8A47EEF1DF080EF1DF088EF1DF097
:103B0000000E1E6E000E1F6E000E206E000E216E47
:103B1000000E2214266E000E2314276E800E24142D
:103B2000286E7F0E2514296E265027102810291084
:103B3000D8A49DEF1DF09FEF1DF0A7EF1DF0000E24
:103B4000226E000E236E000E246E000E256E21AE36
:103B5000ACEF1DF0AEEF1DF0B7EF1DF01E6C1F1E99
:103B6000D8B01F2A201ED8B0202A800E215625AE9C
:103B7000BCEF1DF0BEEF1DF0C7EF1DF0226C231E41
:103B8000D8B0232A241ED8B0242A800E2556000E31
:103B90001E1A000E1F1A000E201A800E211A000E87
:103BA000221A000E231A000E241A800E251A225003
:103BB0001E5C23501F582450205825502158D8B03F
:103BC000E4EF1DF0E6EF1DF0E9EF1DF0D890EAEF0D
:103BD0001DF0D8801200E8C00FF0E9C010F0EAC074
:103BE00011F0EBC012F005C00FF006C010F007C0D6
:103BF00011F008C012F00FC009F010C00AF011C097
:103C00000BF012C00CF0180E0BEF1EF0D8900C3217
:103C10000B320A320932E82E06EF1EF009500D6E03
:103C20000E6A0D500E10D8A418EF1EF01AEF1EF0F9
:103C30003AEF1EF0D8900F34096E10340A6E11342A
:103C40000B6E12340C6E09500A100B100C10D8A415
:103C50002CEF1EF02EEF1EF034EF1EF0000E066E5D
:103C6000020E056E69EF1EF0000E066E030E056E65
:103C700069EF1EF00D280E10D8A441EF1EF043EF9F
:103C80001EF065EF1EF00FC009F010C00AF011C061
:103C90000BF012C00CF0090ED89009360A360B361C
:103CA0000C36E82E4CEF1EF009500A100B100C10C9
:103CB000D8B45DEF1EF060EF1EF0010E61EF1EF054
:103CC000000E056E066A69EF1EF0000E066E040E09
:103CD000056E120005C00CF006C00DF007C00EF016
:103CE00008C00FF00906D8A00A06092806E10A282C
:103CF000D8A47DEF1EF07FEF1EF08CEF1EF0000EBB
:103D0000066E000E056ED7EF1EF00C4A0D2A0E4A05
:103D10000F2A0906D8A00A060CC0D9FF0DC0DAFF89
:103D2000DF50D8B496EF1EF098EF1EF0C5EF1EF0EE
:103D30000EC0F6FF0FC0F7FFF86A0800F550000943
:103D4000D8B4A5EF1EF0A7EF1EF0C5EF1EF0095086
:103D50000A10D8B4AEEF1EF0B0EF1EF0C5EF1EF0A3
:103D60000CC0D9FF0DC0DAFFDF500B6E0EC0F6FF9E
:103D70000FC0F7FFF86A0800F5500B18D8B4C3EF6E
:103D80001EF0C5EF1EF085EF1EF00CC0D9FF0DC070
:103D9000DAFFDF500B6E0EC0F6FF0FC0F7FFF86AB8
:103DA0000800F5500B5C056E066AD8A006061200E6
:103DB0000001F5A1DEEF1EF0E0EF1EF0EAEF1EF0CD
:103DC00019C010F01AC011F017C012F018C013F08B
:103DD0004BEC25F01CBEEFEF1EF0F1EF1EF0F7EFFD
:103DE0001EF01BC020F01CC021F0FBEF1EF0000EE7
:103DF000216E000E206E000E1F6E000E1E6E0DEF67
:103E00001FF0000E086E200E076E17C009F018C0D4
:103E10000AF0B6EC21F01E4A1F2A20501E5C1F50EB
:103E2000800A1D6E2150800A1D58D8A01AEF1FF07D
:103E30001CEF1FF001EF1FF00001F5B122EF1FF0A2
:103E400024EF1FF02EEF1FF019C010F01AC011F070
:103E500017C012F018C013F04BEC25F019C005F094
:103E60001AC006F024EC26F020500524176E2150CD
:103E70000620186E1200000E0A6E08BE44EF1FF0F6
:103E800042EF1FF04AEF1FF0076C081ED8B0082A57
:103E9000010E0A6E06BE51EF1FF04FEF1FF057EFF5
:103EA0001FF0056C061ED8B0062A010E0A1A000E75
:103EB0000C6E000E0B6E07500810D8B462EF1FF0A6
:103EC00064EF1FF08CEF1FF0010E096E6CEF1FF016
:103ED000D89007360836092A08AE71EF1FF073EF45
:103EE0001FF068EF1FF0D8900B360C360750055CBA
:103EF00008500658D8A07FEF1FF081EF1FF086EF23
:103F00001FF00750055E0850065A0B80D890083203
:103F10000732092E73EF1FF00A50D8B492EF1FF04A
:103F200094EF1FF098EF1FF00B6C0C1ED8B00C2A0A
:103F30000BC005F00CC006F0120061EC27F0000980
:103F4000D8B4A5EF1FF0A7EF1FF0E2EF1FF0B5EF19
:103F50001FF0D4EC27F0FEEF1FF0D0EC27F0FEEFBF
:103F60001FF0C8EC27F0FEEF1FF0D2C00EF0D3C058
:103F70000FF002D8C6EF1FF00500FA6E0001C6511F
:103F8000FD6EC751FE6EFF6AFA501200106E116A84
:103F90001150000AD8B4CFEF1FF0B1EF1FF010504E
:103FA000010AD8B4B1EF1FF0030AD8B4A9EF1FF08B
:103FB000010AD8B4ADEF1FF0070AD8B4B1EF1FF073
:103FC000B1EF1FF00001E391DDC0D9FFDEC0DAFFE1
:103FD000DD4BDE2BDF50D8EC27F00001DF07D8A047
:103FE000E007DF51E011D8A4F8EF1FF0FAEF1FF05F
:103FF000FDEF1FF0060EFEEF1FF0030E1200000E85
:104000005824D96EDA6A010EDA22000EDF6EABA4F4
:104010000CEF20F00EEF20F023EF20F0000E5824DC
:10402000D96EDA6A010EDA220101DF8202D823EFAB
:1040300020F00500FA6E0001F851FD6EF951FE6E98
:10404000FF6AFA501200ABA228EF20F02AEF20F00E
:104050003EEF20F0000E5824D96EDA6A010EDA2203
:104060000101DF8402D83EEF20F00500FA6E6A51AC
:10407000FD6E6B51FE6EFF6AFA501200000E58245E
:10408000D96EDA6A010EDA22DF50D8B44AEF20F096
:104090004CEF20F05BEF20F002D859EF20F0050044
:1040A000FA6E01016851FD6E6951FE6EFF6AFA50A9
:1040B00012005DEF20F0DAEC26F01200000E0A6E1E
:1040C00006BE67EF20F065EF20F06DEF20F0056C85
:1040D000061ED8B0062A010E0A6E08BE74EF20F044
:1040E00072EF20F078EF20F0076C081ED8B0082A95
:1040F00007500810D8B47FEF20F081EF20F0A5EF33
:1041000020F0010E096E89EF20F0D89007360836AE
:10411000092A08AE8EEF20F090EF20F085EF20F016
:104120000750055C08500658D8A099EF20F09BEF87
:1041300020F09FEF20F00750055E0850065AD890F7
:1041400008320732092E90EF20F00A50D8B4ABEFB6
:1041500020F0ADEF20F0B1EF20F0056C061ED8B0D6
:10416000062A05C005F006C006F01200000E166E05
:10417000000E176E690EAEEC23F0010E166E300EB7
:10418000176E690EAEEC23F0020E166E000E176E5F
:10419000690EAEEC23F0030E1A6E080E196E770E40
:1041A000E82EFED7192EFCD71A2EFAD700F0080EEB
:1041B000166E300E176E690EAEEC23F0090E166EF9
:1041C000000E176E690EAEEC23F00A0E166E150E79
:1041D000176E690EAEEC23F00B0E166E000E176E06
:1041E000690EAEEC23F00C0E166E200E176E690EE3
:1041F000AEEC23F00D0E166E000E176E690EAEECCF
:1042000023F0030E1A6E080E196E770EE82EFED7F5
:10421000192EFCD71A2EFAD700F01200000E051442
:104220000D6E000E06140E6E800E07140F6E7F0EBC
:104230000814106E0D500E100F101010D8A423EF9C
:1042400021F025EF21F02DEF21F0000E056E000E7C
:10425000066E000E076E000E086E000E09140D6E3D
:10426000000E0A140E6E800E0B140F6E7F0E0C14CF
:10427000106E0D500E100F101010D8A442EF21F048
:1042800044EF21F04CEF21F0000E096E000E0A6E93
:10429000000E0B6E000E0C6E095005180FE10A504F
:1042A00006180CE10B50071809E10C500818D8B497
:1042B0005CEF21F05EEF21F061EF21F0D89062EF2A
:1042C00021F0D8801200ECEC27F0DDC0D9FFDEC071
:1042D000DAFFDF6E0001DD4BDE2BDF07D8A0E00741
:1042E000DF51E011D8B477EF21F079EF21F07EEFC4
:1042F00021F0DCEC27F0050EB5EF21F0E38789EF24
:1043000021F0BCEC27F0B5EF21F0C0EC27F0B5EFC1
:1043100021F0CCC00EF0CDC00FF002D899EF21F003
:104320000500FA6EC051FD6EC151FE6EFF6AFA5073
:104330001200106E116A1150000AD8B4A2EF21F0D9
:1043400085EF21F01050010AD8B485EF21F0030A5F
:10435000D8B481EF21F0010AD8B481EF21F0070A27
:10436000D8B485EF21F085EF21F0120009500A1032
:10437000D8B4BDEF21F0BFEF21F0C8EF21F0095014
:104380000A10D8A4C6EF21F0C8EF21F0CDEF21F03C
:10439000075095EC27F000EF22F020EE04F00950D2
:1043A000D9260A50DA22DE50DE10D8B4DAEF21F036
:1043B000DCEF21F0F7EF21F020EE04F00950D926D0
:1043C0000A50DA2210EE02F00950E1260A50E222E9
:1043D000DE50E65CE650800A0F6EDE50800A0F5811
:1043E000D8B0F5EF21F0F7EF21F000EF22F020EE4A
:1043F00002F00950D9260A50DA22DE2A000EDD2208
:104400001200056E010E066E0001E3B50AEF22F000
:104410000CEF22F046EF22F005C0DCF0E393E385D9
:10442000E3910E0EE16F010EDB6FF40EDA6FE3879E
:10443000E40EC06F4F0EC16F000ECC6F000ECD6F3B
:10444000E40EC26F4F0EC36F000ECE6F000ECF6F23
:10445000E40EC46F4F0EC56F000ED06F000ED16F0B
:10446000E40EC66F4F0EC76F000ED26F000ED36FF3
:10447000E00EC86F4F0EC96F000ED46F000ED56FDF
:10448000FEEC27F014EC27F0000E066E065012002A
:104490000001EC51236E226AED512224246E000E9D
:1044A0002320256E24C005F025C006F0076A086A9F
:1044B000000E84EC1AF005C026F006C027F007C0F5
:1044C00028F008C029F026C005F027C006F028C053
:1044D00007F029C008F0000E096E000E0A6E800E6B
:1044E0000B6E3E0E0C6E99EC15F005C026F006C062
:1044F00027F007C028F008C029F026C01EF027C00A
:104500001FF028C020F029C021F012000001E3872D
:1045100097EF22F0CCEC27F0C3EF22F0EAEC27F083
:10452000030EC3EF22F0C8EC27F0C3EF22F0CCC09B
:104530000EF0CDC00FF002D8A7EF22F00500FA6E02
:10454000C051FD6EC151FE6EFF6AFA501200106E2E
:10455000116A1150000AD8B4B0EF22F093EF22F0A4
:104560001050010AD8B493EF22F0030AD8B48AEFAE
:1045700022F0010AD8B48AEF22F0070AD8B48EEFED
:1045800022F093EF22F01200096E05500610D8B405
:10459000CCEF22F0CEEF22F0E8EF22F00950020D2E
:1045A000C00EF324D96E000EF420DA6E05C0DEFFD3
:1045B00006C0DDFF0950020DCC0EF324D96E000EAB
:1045C000F420DA6E07C0DEFF08C0DDFF00EF23F045
:1045D0000950020DC00EF324D96E000EF420DA6EDD
:1045E000E40EDE6E4F0EDD6E0950020DCC0EF3248C
:1045F000D96E000EF420DA6E000EDE6E000EDD6E57
:1046000012009D9AFE0E056E3F0E066EA4EC27F07A
:104610009D981E0E056E4B0E066E9FEC27F0080E41
:10462000B86E900EAB6E240EAC6EA00EAF6E010E87
:10463000B06E000E056E500E066EAEEC27F0C40E86
:10464000056E4F0E066EA9EC27F0CA0E056E4F0ED2
:10465000066EB3EC27F0000E0001F76F000E5A6EE5
:10466000000E596E080EFE6F000E586E000E576E4B
:10467000000E566E9D8A1200176E000E186E1750AF
:1046800001EC22F00009D8B448EF23F04AEF23F000
:104690003FEF23F0060E0A6E4D0E0B6E180E0C6ED9
:1046A000000E0D6E40EC27F0160E056E000E066E25
:1046B000000E086E010E076E02EC27F0000E0A6E67
:1046C000000E0B6E000E0C6E000E0D6E34EC27F01B
:1046D000B8EC27F0AFEC26F0E806D8B472EF23F080
:1046E00074EF23F06AEF23F018501200FEEC27F06D
:1046F0000001E3A17EEF23F080EF23F08DEF23F0A4
:1047000061EC27F00009D8B488EF23F08AEF23F09A
:104710008DEF23F00F0E0001E16F0001E151020D5A
:10472000010EF324F66E100EF420F76EF86A000EF8
:10473000F8220900F5CF12F00900F5CF13F002D8E6
:10474000ABEF23F00500FA6E1250FD6E1350FE6EB3
:10475000FF6AFA5012000001E16F1200186E185043
:1047600001EC22F00009D8B4B8EF23F0BAEF23F03F
:10477000AFEF23F0AE0E0A6E4C0E0B6E170E0C6EE2
:10478000000E0D6E40EC27F0160E056E000E066E44
:10479000000E086E010E076E02EC27F0000E0A6E86
:1047A000000E0B6E000E0C6E000E0D6E34EC27F03A
:1047B000B8EC27F0AFEC26F0E806D8B4E2EF23F02F
:1047C000E4EF23F0DAEF23F012000001E391020E90
:1047D000E26FF3EF23F0CCEC27F017EF24F0C8ECF6
:1047E00027F017EF24F0D0C00EF0D1C00FF002D8A0
:1047F00003EF24F00500FA6EC451FD6EC551FE6E44
:10480000FF6AFA501200106E116A1150000AD8B4F3
:104810000CEF24F0EFEF23F01050020AD8B4EBEFC6
:1048200023F0010AD8B4EBEF23F0EFEF23F01200EE
:104830009AC054F09BC055F0000E0001F06F000EBE
:10484000EF6F36EF24F098C03EF099C03FF0540E61
:10485000406E000E416E9CC042F09DC043F049EC9A
:1048600013F03E500001EF273F50F02354C0F6FFF5
:1048700055C0F7FFF86A0800F5500009D8A443EFC7
:1048800024F045EF24F023EF24F0EFC098F0F0C0BF
:1048900099F01200BF0E0D6EFF0E0E6E0BC00FF0E2
:1048A0000CC010F00D500F260E50102210500AE1CF
:1048B0001A0E0F5CD8A05FEF24F062EF24F0010E17
:1048C00063EF24F0000E116E126A11501210D8B46A
:1048D0006CEF24F06EEF24F075EF24F0200E0B1037
:1048E0000B6E0C500C6E79EF24F00BC00BF00CC06B
:1048F0000CF0120007C00BF008C00CF005C00DF062
:1049000006C00EF00B50096E0C500A6E0B4A0C2AB2
:1049100009C0F6FF0AC0F7FF000EF86E0DC0D9FF00
:104920000EC0DAFF0D4A0E2A0F0EF76403D00800FE
:10493000F55005D0F6CFE9FFF7CFEAFFEF50DF6E75
:10494000DF50D8A4A6EF24F0A8EF24F082EF24F0E3
:104950001200056E0001FE51D8B4B1EF24F0B3EFA0
:1049600024F0AAEF24F09DB8B8EF24F0BAEF24F0B9
:10497000BEEF24F005C0ADFFD3EF24F09D98100EDC
:104980005A24D96EDA6A010EDA2205C0DFFF5A2AEC
:10499000070E5A64CEEF24F0D0EF24F0D2EF24F0CB
:1049A000000E5A6EFE079D88120003EE00F011EE15
:1049B00000F0EE6AE550E150FCE1E250FAE102EE6F
:1049C00000F011EE00F0EE6AE550E150FCE1E2503B
:1049D000FAE101EE00F0680EEE6AE806FDE100EE95
:1049E000C0F0380EEE6AE806FDE15A6A596A586A64
:1049F000576A566A5B905B92000183EF0EF0010EDE
:104A00000B6E200E05180610D8B409EF25F00BEF39
:104A100025F024EF25F0F70E076EFF0E086E05C097
:104A200009F006C00AF00750092608500A220A5069
:104A300009E1050E095CD8A020EF25F022EF25F052
:104A400024EF25F0000E0B6E0BC005F0066A120075
:104A5000000E221A000E231A000E241A800E251AA8
:104A60001EC005F01FC006F020C007F021C008F0EE
:104A700022C009F023C00AF024C00BF025C00CF0BE
:104A8000E9EC10F005C01EF006C01FF007C020F0D2
:104A900008C021F01200000E166E000E156E5CEFBD
:104AA00025F014C007F0086A12C009F013C00AF01C
:104AB000B6EC21F0154A162A15501024D96E16505E
:104AC0001120DA6EDF50146E1450D8A46AEF25F06E
:104AD0006CEF25F051EF25F01200146E010E156EEB
:104AE0000001E3B376EF25F078EF25F08DEF25F0A8
:104AF000E383000E156E1450D8B481EF25F083EFD8
:104B000025F087EF25F0010EE16F89EF25F0020E09
:104B1000E16FF8EC27F025EC27F015501200080E95
:104B20000001FE6196EF25F098EF25F0AEEF25F03D
:104B3000100E5924D96EDA6A010EDA22DF50AD6EFA
:104B4000592A070E5964A7EF25F0A9EF25F0ABEF1E
:104B500025F0000E596EFE2BAFEF25F09D98120048
:104B600020EE02F00E50D9260F50DA22DECF05F0EB
:104B7000DDCF06F00EC0D9FF0FC0DAFFDECF07F0A1
:104B8000DDCF08F002EC27F0000E0A6E000E0B6E6F
:104B9000000E0C6E000E0D6E40EC27F0020E12009F
:104BA000BF0E076EFF0E086E05C009F006C00AF0C2
:104BB0000750092608500A220A500AE11A0E095C19
:104BC000D8A0E5EF25F0E8EF25F0010EE9EF25F09C
:104BD000000E056E066A1200055006100710081038
:104BE000D8B4F5EF25F0F7EF25F0FFEF25F0000E34
:104BF000051A000E061A000E071A800E081A05C0C4
:104C000005F006C006F007C007F008C008F0120063
:104C1000D00E076EFF0E086E05C009F006C00AF040
:104C20000750092608500A220A500AE10A0E095CB8
:104C3000D8A01DEF26F020EF26F0010E21EF26F080
:104C4000000E056E066A120005C007F006C008F0E7
:104C50002CEF26F0054A062A05C0D9FF06C0DAFF68
:104C6000DF50D8A436EF26F038EF26F02AEF26F0F2
:104C70000750055C056E08500658066E1200000EBF
:104C80008D6E000E8C6E000E896E000E8A6E000E08
:104C90008B6E070E966E92689368BF0E946E956841
:104CA0007E681F0E7F6E000E7C6EF18E12000EC0AD
:104CB00005F00FC006F0000E086E010E076E02EC44
:104CC00027F0000E0A6E000E0B6E000E0C6E000E2A
:104CD0000D6E40EC27F0040E12000EC005F00FC060
:104CE00006F0000E086E020E076E02EC27F0000EB2
:104CF0000A6E000E0B6E000E0C6E000E0D6E40EC78
:104D000027F0020E12000EC005F00FC006F0000ED4
:104D1000086E010E076E02EC27F0000E0A6E000E00
:104D20000B6E000E0C6E000E0D6E40EC27F0020EA6
:104D300012000EC005F00FC006F0000E086E020E45
:104D4000076E02EC27F0000E0A6E000E0B6E000ECE
:104D50000C6E000E0D6E40EC27F0040E1200010EDA
:104D6000056E0001E3B3B7EF26F0B9EF26F0C3EF0D
:104D700026F0E395DC69FEEC27F0FAEC27F0FCEC7A
:104D800027F0E2C005F005501200A00E01016C6F83
:104D9000000E6D6F000E0001986F000E996F9EC09F
:104DA0009AF09FC09BF06C0E9C6F010E9D6F18ECEB
:104DB00024F01200080E5824D96EDA6A010EDA22A5
:104DC000AECFDFFF582A070E5864E9EF26F0EBEF6D
:104DD00026F0EDEF26F0000E586E562A1200055010
:104DE0000702F3CF09F0F4CF0AF005500802F350A0
:104DF0000A2606500702F3500A2609C005F00AC029
:104E000006F012000001E3A708EF27F00AEF27F0F1
:104E100013EF27F005C0DDF006C0DEF007C0DFF0BD
:104E200008C0E0F0E3971200C6BA19EF27F01BEFB5
:104E300027F024EF27F0000EC76E080EC66E000E96
:104E4000C56E270EC86EC68A12002BEF27F06BECDA
:104E500027F076EC23F00001E3B331EF27F033EFD6
:104E600027F027EF27F012000AC005F00BC006F06C
:104E70000CC007F00DC008F0020EC4EC22F01200C6
:104E80000AC005F00BC006F00CC007F00DC008F01A
:104E9000000EC4EC22F01200E8EC27F057EC27F0EB
:104EA0003FEC26F09AEC27F001EC23F01200000E04
:104EB000C76E080EC66E000EC56E270EC86EC69A67
:104EC0001200C5BC66EF27F069EF27F0010E6AEF0C
:104ED00027F0000E12009EA670EF27F072EF27F069
:104EE0006BEF27F012000001E381DC51DC25D8ECE8
:104EF00027F0030E12000001E381D880DC35D8ECE6
:104F000027F0050E12000001E393000EE26F0E0E73
:104F100012000001E391EEEC27F0040E12000001F4
:104F2000E393000EE26F0E0E1200066E0650A9EC1F
:104F300024F01200720ED36E400E9B6E120005C05C
:104F4000FCF006C0FDF0120005C0FAF006C0FBF050
:104F5000120005C06AF106C06BF1120005C0F8F03E
:104F600006C0F9F0120005C068F106C069F1120030
:104F7000000E6DEC25F01200DFEC27F0090E120098
:104F8000DFEC27F00A0E1200DCEC27F0050E120011
:104F9000F4EC27F0000E1200F6EC27F0010E1200E0
:104FA000F6EC27F0020E1200F6EC27F0010E1200CC
:104FB000056E05C0C9FF1200C59AC5881200C58AD2
:104FC000C5881200AB98AB881200DAEC26F012000C
:104FD000D09E12009E861200C9501200C586120093
:104FE000050E1200010E1200C5841200C5821200C7
:104FF000C58012009D961200C69A12009E9612005D
:0250000012009C
:020000040020DA
:08000000FFFFFFFFFFFFFFFF00
:020000040030CA
:0E000000FF081F1EFF0B81FF0FC00FE00F4017
:00000001FF
